{
    "contractName": "Alpress",
    "abi": [
        {
            "inputs": [
                {
                    "internalType": "contract ENS",
                    "name": "_ens",
                    "type": "address"
                },
                {
                    "internalType": "contract Resolver",
                    "name": "_publicResolver",
                    "type": "address"
                },
                {
                    "internalType": "address",
                    "name": "_resolver",
                    "type": "address"
                }
            ],
            "stateMutability": "nonpayable",
            "type": "constructor"
        },
        {
            "anonymous": false,
            "inputs": [
                {
                    "indexed": true,
                    "internalType": "bytes32",
                    "name": "label",
                    "type": "bytes32"
                },
                {
                    "indexed": false,
                    "internalType": "string",
                    "name": "name",
                    "type": "string"
                }
            ],
            "name": "NewRegistration",
            "type": "event"
        },
        {
            "inputs": [],
            "name": "TLD_NODE",
            "outputs": [
                {
                    "internalType": "bytes32",
                    "name": "",
                    "type": "bytes32"
                }
            ],
            "stateMutability": "view",
            "type": "function"
        },
        {
            "inputs": [
                {
                    "internalType": "string",
                    "name": "name",
                    "type": "string"
                }
            ],
            "name": "buy",
            "outputs": [],
            "stateMutability": "payable",
            "type": "function"
        },
        {
            "inputs": [
                {
                    "internalType": "string",
                    "name": "name",
                    "type": "string"
                }
            ],
            "name": "checkExpiration",
            "outputs": [
                {
                    "internalType": "uint256",
                    "name": "expirationTime",
                    "type": "uint256"
                }
            ],
            "stateMutability": "view",
            "type": "function"
        },
        {
            "inputs": [
                {
                    "internalType": "string",
                    "name": "name",
                    "type": "string"
                }
            ],
            "name": "checkOwner",
            "outputs": [
                {
                    "internalType": "address",
                    "name": "owner",
                    "type": "address"
                }
            ],
            "stateMutability": "view",
            "type": "function"
        },
        {
            "inputs": [
                {
                    "internalType": "string",
                    "name": "name",
                    "type": "string"
                }
            ],
            "name": "checkTaken",
            "outputs": [
                {
                    "internalType": "bool",
                    "name": "taken",
                    "type": "bool"
                }
            ],
            "stateMutability": "view",
            "type": "function"
        },
        {
            "inputs": [],
            "name": "ens",
            "outputs": [
                {
                    "internalType": "contract ENS",
                    "name": "",
                    "type": "address"
                }
            ],
            "stateMutability": "view",
            "type": "function"
        },
        {
            "inputs": [],
            "name": "publicResolver",
            "outputs": [
                {
                    "internalType": "contract Resolver",
                    "name": "",
                    "type": "address"
                }
            ],
            "stateMutability": "view",
            "type": "function"
        },
        {
            "inputs": [
                {
                    "internalType": "string",
                    "name": "name",
                    "type": "string"
                }
            ],
            "name": "renew",
            "outputs": [],
            "stateMutability": "payable",
            "type": "function"
        },
        {
            "inputs": [
                {
                    "internalType": "address",
                    "name": "newResolver",
                    "type": "address"
                }
            ],
            "name": "setDefaultResolver",
            "outputs": [],
            "stateMutability": "nonpayable",
            "type": "function"
        },
        {
            "inputs": [
                {
                    "internalType": "uint256",
                    "name": "price",
                    "type": "uint256"
                }
            ],
            "name": "setPrice",
            "outputs": [],
            "stateMutability": "nonpayable",
            "type": "function"
        },
        {
            "inputs": [
                {
                    "internalType": "string",
                    "name": "name",
                    "type": "string"
                }
            ],
            "name": "unlist",
            "outputs": [],
            "stateMutability": "nonpayable",
            "type": "function"
        }
    ],
    "bytecode": "6080604052660ffcb9e57d400060035534801561001b57600080fd5b5060405161110d38038061110d8339818101604052606081101561003e57600080fd5b5080516020820151604090920151600480546001600160a01b039384166001600160a01b031991821617909155600580549484169482169490941790935560008054929091169183169190911790556001805490911633179055611066806100a76000396000f3fe60806040526004361061009c5760003560e01c806397e3e9c41161006457806397e3e9c4146102585780639d5feab3146102d3578063a4a9a61214610384578063bdbb119b146103f2578063c66485b21461046d578063f8256121146104a05761009c565b80633f15457f146100a1578063492cc769146100d25780637760a3c71461014257806391b7f5ed1461020757806396df354014610231575b600080fd5b3480156100ad57600080fd5b506100b66104b5565b604080516001600160a01b039092168252519081900360200190f35b610140600480360360208110156100e857600080fd5b810190602081018135600160201b81111561010257600080fd5b82018360208201111561011457600080fd5b803590602001918460018302840111600160201b8311171561013557600080fd5b5090925090506104c4565b005b34801561014e57600080fd5b506101f36004803603602081101561016557600080fd5b810190602081018135600160201b81111561017f57600080fd5b82018360208201111561019157600080fd5b803590602001918460018302840111600160201b831117156101b257600080fd5b91908080601f016020809104026020016040519081016040528093929190818152602001838380828437600092019190915250929550610790945050505050565b604080519115158252519081900360200190f35b34801561021357600080fd5b506101406004803603602081101561022a57600080fd5b50356107e5565b34801561023d57600080fd5b50610246610839565b60408051918252519081900360200190f35b34801561026457600080fd5b506102466004803603602081101561027b57600080fd5b810190602081018135600160201b81111561029557600080fd5b8201836020820111156102a757600080fd5b803590602001918460018302840111600160201b831117156102c857600080fd5b50909250905061085d565b3480156102df57600080fd5b50610140600480360360208110156102f657600080fd5b810190602081018135600160201b81111561031057600080fd5b82018360208201111561032257600080fd5b803590602001918460018302840111600160201b8311171561034357600080fd5b91908080601f0160208091040260200160405190810160405280939291908181526020018383808284376000920191909152509295506108e2945050505050565b6101406004803603602081101561039a57600080fd5b810190602081018135600160201b8111156103b457600080fd5b8201836020820111156103c657600080fd5b803590602001918460018302840111600160201b831117156103e757600080fd5b509092509050610c00565b3480156103fe57600080fd5b506100b66004803603602081101561041557600080fd5b810190602081018135600160201b81111561042f57600080fd5b82018360208201111561044157600080fd5b803590602001918460018302840111600160201b8311171561046257600080fd5b509092509050610cd9565b34801561047957600080fd5b506101406004803603602081101561049057600080fd5b50356001600160a01b0316610d64565b3480156104ac57600080fd5b506100b6610dd5565b6004546001600160a01b031681565b6040805180820182526007815266616c707265737360c81b60209182015281517f93cdeb708b7545dc668eb9280176169d1c33cfd8ed6f04690a0bcc88a93fc4ae818301527fefa02a3c3d5ae7bcd3eb19a279dee2d2584e97a31cb9a3d54eed0182bd398d808184015282518082038401815260609091019283905280519101209060009084908490808383808284376040805191909301819003812060045460208084018b9052838601839052855180850387018152606085018088528151918301919091206302571be360e01b90915260648501529451919850600097506001600160a01b031695506302571be3945060848083019493509091829003018186803b1580156105d457600080fd5b505afa1580156105e8573d6000803e3d6000fd5b505050506040513d60208110156105fe57600080fd5b50516001600160a01b03161461065b576040805162461bcd60e51b815260206004820152601760248201527f5573657220616c72656164792072656769737465726564000000000000000000604482015290519081900360640190fd5b6003543410156106a6576040805162461bcd60e51b8152602060048201526011602482015270139bdd08195b9bdd59da08185b5bdd5b9d607a1b604482015290519081900360640190fd5b6003543411156106e2576003546040513391340380156108fc02916000818181858888f193505050501580156106e0573d6000803e3d6000fd5b505b6106ed828233610de4565b6000818152600260205260409020610706818686610f6e565b506001810180546001600160a01b031916331790556301e1338042016002820155604080516020808252810186905283917f50ccb4a6c2fea721bed6f1115eb43941701a38ab35a6cdacae41ac504ff413ff91889188919081908101848480828437600083820152604051601f909101601f19169092018290039550909350505050a25050505050565b80516020808301919091206000818152600290925260408220600101546001600160a01b0316158015906107d557506000818152600260208190526040909120015442105b156107df57600191505b50919050565b6001546001600160a01b03163314610834576040805162461bcd60e51b815260206004820152600d60248201526c1058d8d95cdcc819195b9a5959609a1b604482015290519081900360640190fd5b600355565b7f93cdeb708b7545dc668eb9280176169d1c33cfd8ed6f04690a0bcc88a93fc4ae81565b60008090506108a183838080601f01602080910402602001604051908101604052809392919081815260200183838082843760009201919091525061079092505050565b156108dc5760008383604051808383808284376040805191909301819003902060009081526002602081905292902090910154955050505050505b92915050565b6001546001600160a01b03163314610931576040805162461bcd60e51b815260206004820152600d60248201526c1058d8d95cdcc819195b9a5959609a1b604482015290519081900360640190fd5b805160208083019190912060008181526002928390526040902091820154909190421115610bfb576040805180820182526007815266616c707265737360c81b60209182015281517f93cdeb708b7545dc668eb9280176169d1c33cfd8ed6f04690a0bcc88a93fc4ae818301527fefa02a3c3d5ae7bcd3eb19a279dee2d2584e97a31cb9a3d54eed0182bd398d8081840152825180820384018152606082018085528151918401919091206004546306ab592360e01b90925260648301819052608483018790523060a484015293516001600160a01b03909116926306ab59239260c480820193918290030181600087803b158015610a2f57600080fd5b505af1158015610a43573d6000803e3d6000fd5b505050506040513d6020811015610a5957600080fd5b50506040805180820182526007815266616c707265737360c81b60209182015281517fefa02a3c3d5ae7bcd3eb19a279dee2d2584e97a31cb9a3d54eed0182bd398d80818301528083018690528251808203840181526060820180855281519190930120600454630c4b7b8560e11b90935260648201819052600060848301819052935190936001600160a01b0390931692631896f70a9260a4808201939182900301818387803b158015610b0d57600080fd5b505af1158015610b21573d6000803e3d6000fd5b50506005546040805162d5fa2b60e81b81526004810186905260006024820181905291516001600160a01b03909316945063d5fa2b0093506044808201939182900301818387803b158015610b7557600080fd5b505af1158015610b89573d6000803e3d6000fd5b50506004805460408051635b0fc9c360e01b815292830186905260006024840181905290516001600160a01b039092169450635b0fc9c3935060448084019391929182900301818387803b158015610be057600080fd5b505af1158015610bf4573d6000803e3d6000fd5b5050505050505b505050565b600082826040518083838082843760405192018290039091206003549095503410159350610c63925050505760405162461bcd60e51b815260040180806020018281038252602781526020018061100a6027913960400191505060405180910390fd5b600354341115610c9f576003546040513391340380156108fc02916000818181858888f19350505050158015610c9d573d6000803e3d6000fd5b505b60008181526002602081905260409091200154421115610bfb5760009081526002602081905260409091200180546301e133800190555050565b6000809050610d1d83838080601f01602080910402602001604051908101604052809392919081815260200183838082843760009201919091525061079092505050565b156108dc576000838360405180838380828437604080519190930181900390206000908152600260205291909120600101546001600160a01b031698975050505050505050565b6001546001600160a01b03163314610db3576040805162461bcd60e51b815260206004820152600d60248201526c1058d8d95cdcc819195b9a5959609a1b604482015290519081900360640190fd5b600080546001600160a01b0319166001600160a01b0392909216919091179055565b6005546001600160a01b031681565b60048054604080516306ab592360e01b815292830186905260248301859052306044840152516001600160a01b03909116916306ab59239160648083019260209291908290030181600087803b158015610e3d57600080fd5b505af1158015610e51573d6000803e3d6000fd5b505050506040513d6020811015610e6757600080fd5b5050604080516020818101869052818301859052825180830384018152606083018085528151919092012060045460008054630c4b7b8560e11b909452606485018390526001600160a01b03938416608486015294519194921692631896f70a9260a480830193919282900301818387803b158015610ee557600080fd5b505af1158015610ef9573d6000803e3d6000fd5b50506004805460408051635b0fc9c360e01b81529283018690526001600160a01b038781166024850152905191169350635b0fc9c39250604480830192600092919082900301818387803b158015610f5057600080fd5b505af1158015610f64573d6000803e3d6000fd5b5050505050505050565b828054600181600116156101000203166002900490600052602060002090601f016020900481019282601f10610faf5782800160ff19823516178555610fdc565b82800160010185558215610fdc579182015b82811115610fdc578235825591602001919060010190610fc1565b50610fe8929150610fec565b5090565b61100691905b80821115610fe85760008155600101610ff2565b9056fe54686520676976656e20616d6f756e74206973206e6f7420656e6f75676820746f2072656e6577a2646970667358221220d750473cb838cf5d2f43907033cead24a19be9e0352e2b4b2ec788358910cbb964736f6c634300060a0033",
    "sourcePath": "/Users/mdt/projects/almonitRepos/almonitPortal/dlog/src/contracts/dlog.sol",
    "compiler": {
        "name": "solc",
        "version": "0.6.10+commit.00c0fcaf"
    },
    "functionHashes": {
        "TLD_NODE()": "96df3540",
        "buy(string)": "492cc769",
        "checkExpiration(string)": "97e3e9c4",
        "checkOwner(string)": "bdbb119b",
        "checkTaken(string)": "7760a3c7",
        "ens()": "3f15457f",
        "publicResolver()": "f8256121",
        "renew(string)": "a4a9a612",
        "setDefaultResolver(address)": "c66485b2",
        "setPrice(uint256)": "91b7f5ed",
        "unlist(string)": "9d5feab3"
    },
    "gasEstimates": {
        "creation": {
            "codeDepositCost": "839600",
            "executionCost": "infinite",
            "totalCost": "infinite"
        },
        "external": {
            "TLD_NODE()": "287",
            "buy(string)": "infinite",
            "checkExpiration(string)": "infinite",
            "checkOwner(string)": "infinite",
            "checkTaken(string)": "infinite",
            "ens()": "1038",
            "publicResolver()": "1147",
            "renew(string)": "infinite",
            "setDefaultResolver(address)": "22001",
            "setPrice(uint256)": "21096",
            "unlist(string)": "infinite"
        },
        "internal": {
            "doRegistration(bytes32,bytes32,address)": "infinite"
        }
    }
}