{
  "contractName": "Alpress",
  "abi": [
    {
      "inputs": [
        {
          "internalType": "contract ENS",
          "name": "_ens",
          "type": "address"
        },
        {
          "internalType": "contract Resolver",
          "name": "_publicResolver",
          "type": "address"
        },
        {
          "internalType": "address",
          "name": "_resolver",
          "type": "address"
        }
      ],
      "stateMutability": "nonpayable",
      "type": "constructor"
    },
    {
      "anonymous": false,
      "inputs": [
        {
          "indexed": true,
          "internalType": "bytes32",
          "name": "label",
          "type": "bytes32"
        },
        {
          "indexed": false,
          "internalType": "string",
          "name": "name",
          "type": "string"
        }
      ],
      "name": "NewRegistration",
      "type": "event"
    },
    {
      "inputs": [],
      "name": "TLD_NODE",
      "outputs": [
        {
          "internalType": "bytes32",
          "name": "",
          "type": "bytes32"
        }
      ],
      "stateMutability": "view",
      "type": "function"
    },
    {
      "inputs": [],
      "name": "ens",
      "outputs": [
        {
          "internalType": "contract ENS",
          "name": "",
          "type": "address"
        }
      ],
      "stateMutability": "view",
      "type": "function"
    },
    {
      "inputs": [],
      "name": "publicResolver",
      "outputs": [
        {
          "internalType": "contract Resolver",
          "name": "",
          "type": "address"
        }
      ],
      "stateMutability": "view",
      "type": "function"
    },
    {
      "inputs": [
        {
          "internalType": "string",
          "name": "name",
          "type": "string"
        }
      ],
      "name": "buy",
      "outputs": [],
      "stateMutability": "payable",
      "type": "function"
    },
    {
      "inputs": [
        {
          "internalType": "string",
          "name": "name",
          "type": "string"
        }
      ],
      "name": "renew",
      "outputs": [],
      "stateMutability": "payable",
      "type": "function"
    },
    {
      "inputs": [
        {
          "internalType": "string",
          "name": "name",
          "type": "string"
        }
      ],
      "name": "unlist",
      "outputs": [],
      "stateMutability": "nonpayable",
      "type": "function"
    },
    {
      "inputs": [
        {
          "internalType": "uint256",
          "name": "price",
          "type": "uint256"
        }
      ],
      "name": "setPrice",
      "outputs": [],
      "stateMutability": "nonpayable",
      "type": "function"
    },
    {
      "inputs": [
        {
          "internalType": "address",
          "name": "newResolver",
          "type": "address"
        }
      ],
      "name": "setDefaultResolver",
      "outputs": [],
      "stateMutability": "nonpayable",
      "type": "function"
    },
    {
      "inputs": [
        {
          "internalType": "string",
          "name": "name",
          "type": "string"
        }
      ],
      "name": "checkTaken",
      "outputs": [
        {
          "internalType": "bool",
          "name": "taken",
          "type": "bool"
        }
      ],
      "stateMutability": "view",
      "type": "function"
    },
    {
      "inputs": [
        {
          "internalType": "string",
          "name": "name",
          "type": "string"
        }
      ],
      "name": "getOwner",
      "outputs": [
        {
          "internalType": "address",
          "name": "owner",
          "type": "address"
        }
      ],
      "stateMutability": "view",
      "type": "function"
    },
    {
      "inputs": [
        {
          "internalType": "string",
          "name": "name",
          "type": "string"
        }
      ],
      "name": "getExpiration",
      "outputs": [
        {
          "internalType": "uint256",
          "name": "expirationTime",
          "type": "uint256"
        }
      ],
      "stateMutability": "view",
      "type": "function"
    },
    {
      "inputs": [],
      "name": "getPrice",
      "outputs": [
        {
          "internalType": "uint256",
          "name": "price",
          "type": "uint256"
        }
      ],
      "stateMutability": "view",
      "type": "function"
    }
  ],
  "bytecode": "0x6080604052660ffcb9e57d400060035534801561001b57600080fd5b50604051611a18380380611a188339818101604052606081101561003e57600080fd5b8101908080519060200190929190805190602001909291908051906020019092919050505082600460006101000a81548173ffffffffffffffffffffffffffffffffffffffff021916908373ffffffffffffffffffffffffffffffffffffffff16021790555081600560006101000a81548173ffffffffffffffffffffffffffffffffffffffff021916908373ffffffffffffffffffffffffffffffffffffffff160217905550806000806101000a81548173ffffffffffffffffffffffffffffffffffffffff021916908373ffffffffffffffffffffffffffffffffffffffff16021790555033600160006101000a81548173ffffffffffffffffffffffffffffffffffffffff021916908373ffffffffffffffffffffffffffffffffffffffff1602179055505050506118a0806101786000396000f3fe6080604052600436106100a75760003560e01c806396df35401161006457806396df3540146103f757806398d5fdca146104225780639d5feab31461044d578063a4a9a61214610515578063c66485b21461058e578063f8256121146105df576100a7565b80633f15457f146100ac578063492cc769146101035780634aaf4a121461017c5780636c9b44ec146102425780637760a3c7146102dc57806391b7f5ed146103bc575b600080fd5b3480156100b857600080fd5b506100c1610636565b604051808273ffffffffffffffffffffffffffffffffffffffff1673ffffffffffffffffffffffffffffffffffffffff16815260200191505060405180910390f35b61017a6004803603602081101561011957600080fd5b810190808035906020019064010000000081111561013657600080fd5b82018360208201111561014857600080fd5b8035906020019184600183028401116401000000008311171561016a57600080fd5b909192939192939050505061065c565b005b34801561018857600080fd5b506102006004803603602081101561019f57600080fd5b81019080803590602001906401000000008111156101bc57600080fd5b8201836020820111156101ce57600080fd5b803590602001918460018302840111640100000000831117156101f057600080fd5b9091929391929390505050610a4f565b604051808273ffffffffffffffffffffffffffffffffffffffff1673ffffffffffffffffffffffffffffffffffffffff16815260200191505060405180910390f35b34801561024e57600080fd5b506102c66004803603602081101561026557600080fd5b810190808035906020019064010000000081111561028257600080fd5b82018360208201111561029457600080fd5b803590602001918460018302840111640100000000831117156102b657600080fd5b9091929391929390505050610b0a565b6040518082815260200191505060405180910390f35b3480156102e857600080fd5b506103a2600480360360208110156102ff57600080fd5b810190808035906020019064010000000081111561031c57600080fd5b82018360208201111561032e57600080fd5b8035906020019184600183028401116401000000008311171561035057600080fd5b91908080601f016020809104026020016040519081016040528093929190818152602001838380828437600081840152601f19601f820116905080830192505050505050509192919290505050610ba5565b604051808215151515815260200191505060405180910390f35b3480156103c857600080fd5b506103f5600480360360208110156103df57600080fd5b8101908080359060200190929190505050610c4e565b005b34801561040357600080fd5b5061040c610d1b565b6040518082815260200191505060405180910390f35b34801561042e57600080fd5b50610437610d42565b6040518082815260200191505060405180910390f35b34801561045957600080fd5b506105136004803603602081101561047057600080fd5b810190808035906020019064010000000081111561048d57600080fd5b82018360208201111561049f57600080fd5b803590602001918460018302840111640100000000831117156104c157600080fd5b91908080601f016020809104026020016040519081016040528093929190818152602001838380828437600081840152601f19601f820116905080830192505050505050509192919290505050610d4c565b005b61058c6004803603602081101561052b57600080fd5b810190808035906020019064010000000081111561054857600080fd5b82018360208201111561055a57600080fd5b8035906020019184600183028401116401000000008311171561057c57600080fd5b909192939192939050505061127a565b005b34801561059a57600080fd5b506105dd600480360360208110156105b157600080fd5b81019080803573ffffffffffffffffffffffffffffffffffffffff1690602001909291905050506113a9565b005b3480156105eb57600080fd5b506105f46114af565b604051808273ffffffffffffffffffffffffffffffffffffffff1673ffffffffffffffffffffffffffffffffffffffff16815260200191505060405180910390f35b600460009054906101000a900473ffffffffffffffffffffffffffffffffffffffff1681565b60007f93cdeb708b7545dc668eb9280176169d1c33cfd8ed6f04690a0bcc88a93fc4ae60001b6040518060400160405280600781526020017f616c7072657373000000000000000000000000000000000000000000000000008152508051906020012060405160200180838152602001828152602001925050506040516020818303038152906040528051906020012090506000838360405180838380828437808301925050509250505060405180910390209050600073ffffffffffffffffffffffffffffffffffffffff16600460009054906101000a900473ffffffffffffffffffffffffffffffffffffffff1673ffffffffffffffffffffffffffffffffffffffff166302571be384846040516020018083815260200182815260200192505050604051602081830303815290604052805190602001206040518263ffffffff1660e01b81526004018082815260200191505060206040518083038186803b1580156107ca57600080fd5b505afa1580156107de573d6000803e3d6000fd5b505050506040513d60208110156107f457600080fd5b810190808051906020019092919050505073ffffffffffffffffffffffffffffffffffffffff161461088e576040517f08c379a00000000000000000000000000000000000000000000000000000000081526004018080602001828103825260178152602001807f5573657220616c7265616479207265676973746572656400000000000000000081525060200191505060405180910390fd5b600354341015610906576040517f08c379a00000000000000000000000000000000000000000000000000000000081526004018080602001828103825260118152602001807f4e6f7420656e6f75676820616d6f756e7400000000000000000000000000000081525060200191505060405180910390fd5b60035434111561095c573373ffffffffffffffffffffffffffffffffffffffff166108fc60035434039081150290604051600060405180830381858888f1935050505015801561095a573d6000803e3d6000fd5b505b6109678282336114d5565b6000600260008381526020019081526020016000209050848482600001919061099192919061179e565b50338160010160006101000a81548173ffffffffffffffffffffffffffffffffffffffff021916908373ffffffffffffffffffffffffffffffffffffffff1602179055506301e1338042018160020181905550817f50ccb4a6c2fea721bed6f1115eb43941701a38ab35a6cdacae41ac504ff413ff868660405180806020018281038252848482818152602001925080828437600081840152601f19601f820116905080830192505050935050505060405180910390a25050505050565b6000809050610aa183838080601f016020809104026020016040519081016040528093929190818152602001838380828437600081840152601f19601f82011690508083019250505050505050610ba5565b15610b045760008383604051808383808284378083019250505092505050604051809103902090506002600082815260200190815260200160002060010160009054906101000a900473ffffffffffffffffffffffffffffffffffffffff169150505b92915050565b6000809050610b5c83838080601f016020809104026020016040519081016040528093929190818152602001838380828437600081840152601f19601f82011690508083019250505050505050610ba5565b15610b9f57600083836040518083838082843780830192505050925050506040518091039020905060026000828152602001908152602001600020600201549150505b92915050565b6000809050600082805190602001209050600073ffffffffffffffffffffffffffffffffffffffff166002600083815260200190815260200160002060010160009054906101000a900473ffffffffffffffffffffffffffffffffffffffff1673ffffffffffffffffffffffffffffffffffffffff1614158015610c3e5750426002600083815260200190815260200160002060020154115b15610c4857600191505b50919050565b600160009054906101000a900473ffffffffffffffffffffffffffffffffffffffff1673ffffffffffffffffffffffffffffffffffffffff163373ffffffffffffffffffffffffffffffffffffffff1614610d11576040517f08c379a000000000000000000000000000000000000000000000000000000000815260040180806020018281038252600d8152602001807f4163636573732064656e6965640000000000000000000000000000000000000081525060200191505060405180910390fd5b8060038190555050565b7f93cdeb708b7545dc668eb9280176169d1c33cfd8ed6f04690a0bcc88a93fc4ae60001b81565b6000600354905090565b600160009054906101000a900473ffffffffffffffffffffffffffffffffffffffff1673ffffffffffffffffffffffffffffffffffffffff163373ffffffffffffffffffffffffffffffffffffffff1614610e0f576040517f08c379a000000000000000000000000000000000000000000000000000000000815260040180806020018281038252600d8152602001807f4163636573732064656e6965640000000000000000000000000000000000000081525060200191505060405180910390fd5b600081805190602001209050600060026000838152602001908152602001600020905042816002015410156112755760007f93cdeb708b7545dc668eb9280176169d1c33cfd8ed6f04690a0bcc88a93fc4ae60001b6040518060400160405280600781526020017f616c707265737300000000000000000000000000000000000000000000000000815250805190602001206040516020018083815260200182815260200192505050604051602081830303815290604052805190602001209050600460009054906101000a900473ffffffffffffffffffffffffffffffffffffffff1673ffffffffffffffffffffffffffffffffffffffff166306ab59238285306040518463ffffffff1660e01b8152600401808481526020018381526020018273ffffffffffffffffffffffffffffffffffffffff1673ffffffffffffffffffffffffffffffffffffffff1681526020019350505050602060405180830381600087803b158015610f8157600080fd5b505af1158015610f95573d6000803e3d6000fd5b505050506040513d6020811015610fab57600080fd5b81019080805190602001909291905050505060006040518060400160405280600781526020017f616c70726573730000000000000000000000000000000000000000000000000081525080519060200120846040516020018083815260200182815260200192505050604051602081830303815290604052805190602001209050600460009054906101000a900473ffffffffffffffffffffffffffffffffffffffff1673ffffffffffffffffffffffffffffffffffffffff16631896f70a8260006040518363ffffffff1660e01b8152600401808381526020018273ffffffffffffffffffffffffffffffffffffffff1673ffffffffffffffffffffffffffffffffffffffff16815260200192505050600060405180830381600087803b1580156110d657600080fd5b505af11580156110ea573d6000803e3d6000fd5b50505050600560009054906101000a900473ffffffffffffffffffffffffffffffffffffffff1673ffffffffffffffffffffffffffffffffffffffff1663d5fa2b008260006040518363ffffffff1660e01b8152600401808381526020018273ffffffffffffffffffffffffffffffffffffffff1673ffffffffffffffffffffffffffffffffffffffff16815260200192505050600060405180830381600087803b15801561119857600080fd5b505af11580156111ac573d6000803e3d6000fd5b50505050600460009054906101000a900473ffffffffffffffffffffffffffffffffffffffff1673ffffffffffffffffffffffffffffffffffffffff16635b0fc9c38260006040518363ffffffff1660e01b8152600401808381526020018273ffffffffffffffffffffffffffffffffffffffff1673ffffffffffffffffffffffffffffffffffffffff16815260200192505050600060405180830381600087803b15801561125a57600080fd5b505af115801561126e573d6000803e3d6000fd5b5050505050505b505050565b60008282604051808383808284378083019250505092505050604051809103902090506003543410156112f8576040517f08c379a00000000000000000000000000000000000000000000000000000000081526004018080602001828103825260278152602001806118446027913960400191505060405180910390fd5b60035434111561134e573373ffffffffffffffffffffffffffffffffffffffff166108fc60035434039081150290604051600060405180830381858888f1935050505015801561134c573d6000803e3d6000fd5b505b42600260008381526020019081526020016000206002015410156113a4576301e1338060026000838152602001908152602001600020600201540160026000838152602001908152602001600020600201819055505b505050565b600160009054906101000a900473ffffffffffffffffffffffffffffffffffffffff1673ffffffffffffffffffffffffffffffffffffffff163373ffffffffffffffffffffffffffffffffffffffff161461146c576040517f08c379a000000000000000000000000000000000000000000000000000000000815260040180806020018281038252600d8152602001807f4163636573732064656e6965640000000000000000000000000000000000000081525060200191505060405180910390fd5b806000806101000a81548173ffffffffffffffffffffffffffffffffffffffff021916908373ffffffffffffffffffffffffffffffffffffffff16021790555050565b600560009054906101000a900473ffffffffffffffffffffffffffffffffffffffff1681565b600460009054906101000a900473ffffffffffffffffffffffffffffffffffffffff1673ffffffffffffffffffffffffffffffffffffffff166306ab59238484306040518463ffffffff1660e01b8152600401808481526020018381526020018273ffffffffffffffffffffffffffffffffffffffff1673ffffffffffffffffffffffffffffffffffffffff1681526020019350505050602060405180830381600087803b15801561158657600080fd5b505af115801561159a573d6000803e3d6000fd5b505050506040513d60208110156115b057600080fd5b810190808051906020019092919050505050600083836040516020018083815260200182815260200192505050604051602081830303815290604052805190602001209050600460009054906101000a900473ffffffffffffffffffffffffffffffffffffffff1673ffffffffffffffffffffffffffffffffffffffff16631896f70a826000809054906101000a900473ffffffffffffffffffffffffffffffffffffffff166040518363ffffffff1660e01b8152600401808381526020018273ffffffffffffffffffffffffffffffffffffffff1673ffffffffffffffffffffffffffffffffffffffff16815260200192505050600060405180830381600087803b1580156116bf57600080fd5b505af11580156116d3573d6000803e3d6000fd5b50505050600460009054906101000a900473ffffffffffffffffffffffffffffffffffffffff1673ffffffffffffffffffffffffffffffffffffffff16635b0fc9c382846040518363ffffffff1660e01b8152600401808381526020018273ffffffffffffffffffffffffffffffffffffffff1673ffffffffffffffffffffffffffffffffffffffff16815260200192505050600060405180830381600087803b15801561178057600080fd5b505af1158015611794573d6000803e3d6000fd5b5050505050505050565b828054600181600116156101000203166002900490600052602060002090601f016020900481019282601f106117df57803560ff191683800117855561180d565b8280016001018555821561180d579182015b8281111561180c5782358255916020019190600101906117f1565b5b50905061181a919061181e565b5090565b61184091905b8082111561183c576000816000905550600101611824565b5090565b9056fe54686520676976656e20616d6f756e74206973206e6f7420656e6f75676820746f2072656e6577a2646970667358221220d6adc622bd716f881b7650d0c39db06432d7612e4417aaa5e5925eaf1eb75dbe64736f6c634300060a0033",
  "immutableReferences": {},
  "source": "pragma solidity >=0.6.10;\n\nimport './ENS.sol';\nimport './FIFSRegistrar.sol';\nimport './Resolver.sol';\n\n// SPDX-License-Identifier: GPL\ncontract Alpress {\n    bytes32 constant platform = keccak256(bytes('alpress')); //TODO hardcode maybe?\n    bytes32 public constant TLD_NODE = 0x93cdeb708b7545dc668eb9280176169d1c33cfd8ed6f04690a0bcc88a93fc4ae; // namehash('eth')\n    address resolver; // ENS standard resolver\n    address almonit;\n    //address almonit = 0xC741cdDa197Af87Acd54a4A5f563C8efDbc754B7; // Almonit multisig account\n\n    modifier almonit_only {\n        require(msg.sender == almonit, 'Access denied');\n        _;\n    }\n\n    event NewRegistration(bytes32 indexed label, string name);\n\n    struct Blog {\n        string name;\n        address payable owner;\n        uint256 expirationBlock;\n    }\n\n    mapping(bytes32 => Blog) blogs;\n\n    uint256 rentPricePerYear = 4500000000000000; // price in Wei of renting a blog for one year\n    ENS public ens;\n    Resolver public publicResolver;\n\n    constructor(ENS _ens, Resolver _publicResolver, address _resolver) public {\n        ens = _ens;\n        publicResolver = _publicResolver;\n        resolver = _resolver;\n        almonit = msg.sender;\n    }\n\n    function buy(string calldata name) external payable {\n        bytes32 platformNode = keccak256(abi.encodePacked(TLD_NODE, platform));\n        bytes32 label = keccak256(bytes(name));\n\n        // Blog must not be registered already.\n        require(\n            ens.owner(keccak256(abi.encodePacked(platformNode, label))) ==\n                address(0),\n            'User already registered'\n        );\n\n        // User must have paid enough\n        require(msg.value >= rentPricePerYear, 'Not enough amount');\n\n        // Send any extra back\n        if (msg.value > rentPricePerYear) {\n            msg.sender.transfer(msg.value - rentPricePerYear);\n        }\n\n        // Register the domain in ENS\n        doRegistration(platformNode, label, msg.sender);\n\n        // Create blog record\n        Blog storage blog = blogs[label];\n        blog.name = name;\n        blog.owner = msg.sender;\n\n        //register for one year \"approximately\" (assuming accurate block time disregarding leap years)\n        blog.expirationBlock = now + 365 days;\n\n        emit NewRegistration(label, name);\n    }\n\n    function renew(string calldata name) external payable {\n        bytes32 label = keccak256(bytes(name));\n\n        // User must have paid enough\n        require(\n            msg.value >= rentPricePerYear,\n            'The given amount is not enough to renew'\n        );\n\n        // Send any extra back\n        if (msg.value > rentPricePerYear) {\n            msg.sender.transfer(msg.value - rentPricePerYear);\n        }\n\n        if (blogs[label].expirationBlock < now) {\n            //extend for one year \"approximately\" (assuming accurate block time, disregarding leap years)\n            blogs[label].expirationBlock = blogs[label].expirationBlock + 365 days;\n        }\n    }\n\n    function unlist(string memory name) public almonit_only {\n        bytes32 label = keccak256(bytes(name));\n\n        Blog storage blog = blogs[label];\n        if (blog.expirationBlock < now) {\n            bytes32 platformNode = keccak256(\n                abi.encodePacked(TLD_NODE, platform)\n            );\n            // Get the subdomain so we can configure it\n            ens.setSubnodeOwner(platformNode, label, address(this));\n\n            bytes32 blogNode = keccak256(abi.encodePacked(platform, label));\n            // Set the subdomain's resolver\n            ens.setResolver(blogNode, address(0));\n\n            // Set the address record on the resolver\n            publicResolver.setAddr(blogNode, address(0));\n\n            // Pass ownership of the new subdomain to the registrant\n            ens.setOwner(blogNode, address(0));\n        }\n    }\n\n    function doRegistration(bytes32 platformNode, bytes32 label, address subOwner) internal {\n        // Get the subdomain so we can configure it\n        ens.setSubnodeOwner(platformNode, label, address(this));\n\n        bytes32 blogNode = keccak256(abi.encodePacked(platformNode, label));\n        // Set the subdomain's resolver\n        ens.setResolver(blogNode, resolver);\n       \n        // Pass ownership of the new subdomain to the registrant\n        ens.setOwner(blogNode, subOwner);\n    }\n\n    /**\n     * Functions for adjusting parameters\n     **/\n    function setPrice(uint256 price) public almonit_only {\n        // Only Almonit can change price\n        rentPricePerYear = price;\n    }\n\n    function setDefaultResolver(address newResolver) public almonit_only {\n        // Only Almonit can change default resolver\n        resolver = newResolver;\n    }\n\n    /**\n     * Query functions\n     **/\n    function checkTaken(string memory name) public view returns (bool taken) {\n        taken = false;\n\n        bytes32 label = keccak256(bytes(name));\n\n        if (\n            (blogs[label].owner != address(0)) &&\n            (blogs[label].expirationBlock > now)\n        ) taken = true;\n    }\n\n    function getOwner(string calldata name)\n        external\n        view\n        returns (address owner)\n    {\n        // if no owner return empty address\n        owner = address(0);\n\n        if (checkTaken(name)) {\n            bytes32 label = keccak256(bytes(name));\n            owner = blogs[label].owner;\n        }\n    }\n\n    function getExpiration(string calldata name)\n        external\n        view\n        returns (uint256 expirationTime)\n    {\n        // if unregistered return 0\n        expirationTime = 0;\n\n        if (checkTaken(name)) {\n            bytes32 label = keccak256(bytes(name));\n            expirationTime = blogs[label].expirationBlock;\n        }\n    }\n\n    function getPrice()\n        external\n        view\n        returns (uint256 price)\n    {\n        price = rentPricePerYear;\n    }\n}\n",
  "sourcePath": "/home/neiman/Desktop/temp/alpress/contracts/Alpress.sol",
  "compiler": {
    "name": "solc",
    "version": "0.6.10+commit.00c0fcaf.Emscripten.clang"
  },
  "schemaVersion": "3.2.0",
  "updatedAt": "2020-07-06T16:14:45.425Z",
  "devdoc": {
    "methods": {}
  },
  "userdoc": {
    "methods": {
      "checkTaken(string)": {
        "notice": "Query functions*"
      },
      "setPrice(uint256)": {
        "notice": "Functions for adjusting parameters*"
      }
    }
  }
}